:020000040800F2
:10000000001000208D0B0008BD0A0008C10A00087E
:1000100000000000000000000000000000000000E0
:10002000000000000000000000000000C50A0008F9
:100030000000000000000000C70A0008C90A00080C
:10004000DD0B000800000000DD0B0008DD0B0008E0
:10005000DD0B0008DD0B0008DD0B0008DD0B0008E0
:1000600000000000A10A0008DD0B0008DD0B0008FD
:10007000DD0B0008DD0B0008DD0B000800000000B0
:10008000DD0B00080000000000000000DD0B000890
:1000900000000000DD0B0008DD0B0008DD0B000890
:1000A00000000000DD0B000800000000DD0B000870
:1000B0000000000000000000000000000000000040
:1000C000002243088B4274D303098B425FD3030A97
:1000D0008B4244D3030B8B4228D3030C8B420DD3AA
:1000E000FF22090212BA030C8B4202D31212090238
:1000F00065D0030B8B4219D300E0090AC30B8B4276
:1001000001D3CB03C01A5241830B8B4201D38B0323
:10011000C01A5241430B8B4201D34B03C01A5241C8
:10012000030B8B4201D30B03C01A5241C30A8B420B
:1001300001D3CB02C01A5241830A8B4201D38B02F6
:10014000C01A5241430A8B4201D34B02C01A52419A
:10015000030A8B4201D30B02C01A5241CDD2C3090C
:100160008B4201D3CB01C01A524183098B4201D388
:100170008B01C01A524143098B4201D34B01C01A73
:10018000524103098B4201D30B01C01A5241C308EB
:100190008B4201D3CB00C01A524183088B4201D35A
:1001A0008B00C01A524143088B4201D34B00C01A46
:1001B0005241411A00D20146524110467047FFE7B2
:1001C00001B5002000F0F0F802BDC0460029F7D0CC
:1001D00076E7704703460B437FD4002243088B42E7
:1001E00074D303098B425FD3030A8B4244D3030BBE
:1001F0008B4228D3030C8B420DD3FF22090212BA83
:10020000030C8B4202D31212090265D0030B8B42FE
:1002100019D300E0090AC30B8B4201D3CB03C01AE8
:100220005241830B8B4201D38B03C01A5241430BC3
:100230008B4201D34B03C01A5241030B8B4201D3B3
:100240000B03C01A5241C30A8B4201D3CB02C01A1E
:100250005241830A8B4201D38B02C01A5241430A96
:100260008B4201D34B02C01A5241030A8B4201D385
:100270000B02C01A5241CDD2C3098B4201D3CB012C
:10028000C01A524183098B4201D38B01C01A5241DB
:1002900043098B4201D34B01C01A524103098B42DF
:1002A00001D30B01C01A5241C3088B4201D3CB00CA
:1002B000C01A524183088B4201D38B00C01A5241AD
:1002C00043088B4201D34B00C01A5241411A00D25D
:1002D00001465241104670475DE0CA0F00D04942C6
:1002E000031000D34042534000229C4603098B4236
:1002F0002DD3030A8B4212D3FC22890112BA030ABE
:100300008B420CD3890192118B4208D3890192113F
:100310008B4204D389013AD0921100E08909C309C4
:100320008B4201D3CB01C01A524183098B4201D3C6
:100330008B01C01A524143098B4201D34B01C01AB1
:10034000524103098B4201D30B01C01A5241C30829
:100350008B4201D3CB00C01A524183088B4201D398
:100360008B00C01A5241D9D243088B4201D34B00B3
:10037000C01A5241411A00D20146634652415B10F5
:10038000104601D34042002B00D5494270476346D6
:100390005B1000D3404201B5002000F005F802BD1B
:1003A0000029F8D016E770477047C04610B5064CD4
:1003B0002378002B07D1054B002B02D0044800E026
:1003C00000BF0123237010BD0400002000000000C6
:1003D000380C0008044B10B5002B03D00349044827
:1003E00000E000BF10BDC046000000000800002073
:1003F000380C000830B583B008220021684600F0B0
:1004000013FC00231EE09A003049D800405A6C4685
:10041000248800196C462080501C4000405A648893
:1004200000196C466080901C4000405AA488001956
:100430006C46A08003325200525AE1885218E28082
:100440000133DBB2012BDED96B4618884008204D02
:1004500068432049FFF7BEFE1F4C6076020AA27671
:10046000020CE276000E20776B46988840086843BD
:100470001849FFF7AFFE22006077030AA377030C49
:10048000E3771D32000ED0706B46588840086843F1
:100490001049FFF79FFE6074030AA374030CE37412
:1004A000000E20756B46D888400868430949FFF75D
:1004B00091FE6075020AA275020CE275000E2076AC
:1004C000064B01221A7003B030BDC0462000002048
:1004D000E40C0000FF0F000034000020300000207A
:1004E00001231840044B1B18D970044B4000C25A1A
:1004F0009023DB059A62704734000020500C0008FE
:1005000070B500230AE02F485C00245A9020C005F3
:1005100084622D48C1184A700133DBB2012B4FD8D9
:10052000294AD2185078D2789042F5D0002AEAD0E1
:10053000012A22D024489C0000194468240A007A29
:10054000000620432FD11F485C00245A9025ED055A
:100550006E69300020400004B4432043A861022AA1
:1005600015D0194A980011184A1D062040424871BA
:10057000002151709170D170CEE712485C00245A6E
:100580009020C00584611048C1184A70C4E70E4A23
:10059000980011184A1D2020487103215170002134
:1005A0009170D170B8E7084C9900421E6118481D3F
:1005B0004A71110A4170110C8170120EC270ABE7C2
:1005C00070BDC046500C00083400002010B52A4B06
:1005D0001B78834225D0284B187003282FD012D8BF
:1005E00001281FD0022839D102210020FFF778FF0F
:1005F00000210120FFF774FF9023DB0510229A628F
:1006000010329A620DE0042828D100210020FFF763
:1006100067FF01210120FFF763FF9023DB05102214
:100620009A6110BD03210020FFF75AFF002101202D
:10063000FFF756FF9023DB0510229A61F1E70221B4
:100640000020FFF74DFF00210120FFF749FF902315
:10065000DB0510229A6210329A61E2E70021002045
:10066000FFF73EFF02210120FFF73AFF9023DB0551
:1006700010229A61D5E7C0463400002010B52C4BFB
:100680001B78002B19D02A4B00221A70294B1A69AB
:10069000120A1B7D1B061343274A934246D9254B5A
:1006A0005A69120A1B7E1B061343234A934201D840
:1006B00000240CE00020FFF789FF10BD0320FFF7A6
:1006C00085FFFAE70120FFF781FF0134E4B2012C36
:1006D000F3D8184B1A69120A1B7D1B061343174ADD
:1006E000934208D9134B5A69120A1B7E1B06134307
:1006F000124A9342E9D80F4B1A78931EDBB2012BB2
:10070000E3D9012ADED10B4BA21D9200D158090A70
:100710009B181B791B060B439622D2009342D4D21E
:10072000002CCBD00220FFF751FFC6E70024CEE714
:100730003000002034000020C4090000DB05000068
:1007400010B500F04DF81F4B1868FA218900FFF72B
:10075000B7FC013880235B0498420DD21A4A5060DE
:100760001A48036A1B021B0AC02109060B430362D5
:10077000002393600733136000F07CF800F04EF91B
:1007800000F0B0F800F024F9114B05221A70002097
:10079000FFF71CFF0F4A136801210B4313600E4A39
:1007A00093680E490B4004210B439360642000F0D2
:1007B0008FF9012000F08CF9FFF7A2FEFFF75EFF32
:1007C000F7E7C0460000002010E000E000ED00E088
:1007D00034000020002C014000240140E8FFFF7F8E
:1007E00010B5204A136801218B430B4313601E4A46
:1007F000116880235B020B4313601B4B1B689B0338
:10080000FBD5194B5968194A1140A42292030A4397
:100810005A60DA6A0F218A430C390A43DA6219688E
:10082000802252040A431A600F4B1B689B01FBD5C0
:100830000D4A5368F0218B4353605368ED398B4365
:1008400001390B435360084B5A680C231340082BA3
:10085000F9D1054A536806490B40536000F04CF942
:1008600010BDC0460020024000100240FFFFC2FF42
:10087000FFF8FFFF82B0164B5A69802189020A43B4
:100880005A615B690B400193019B9023DB0519685A
:10089000104A1140802252010A431A6019680E4A18
:1008A00011408022D2010A431A6019680B4A114094
:1008B000802252000A431A6010229A611968084A7D
:1008C00011408022D2000A431A6002B07047C0462D
:1008D00000100240FFCFFFFFFF3FFFFFFFFCFFFFC5
:1008E000FFF3FFFF00B583B09023DB051A680321F7
:1008F0008A430A431A601A680C20824302431A6032
:100900001A682430824302431A601A689030824386
:1009100002431A60284B9A694130FF3002439A61C2
:100920009B6903400193019B244B1A699200920832
:100930008020C00502431A615A69072082430138AA
:1009400002435A61D8681E4A10408022D2000243F6
:10095000DA60D8681B4A1040802292010243DA60B4
:10096000D868194A1040802252010243DA600F22EF
:100970009A62DA688A43DA609968144A1140183238
:100980000A439A600D4B9B68002BFBDB012000F0B3
:100990009FF80A4AD36803218B430B43D3609368C3
:1009A0000A490B4001210B439360044B1B68DB0792
:1009B000FBD503B000BDC04600100240002401403A
:1009C0003FF2FFFFFFDFFFFFFFEFFFFFE8FFFF7FCB
:1009D00082B00E4B9A69802109010A439A619B6992
:1009E0000B400193019B0A4B0A4A9A620A4ADA6257
:1009F0001A6870218A431A6000221A635A688A436F
:100A000050390A435A6002B07047C0460010024095
:100A1000002C0140BF1200000F27000010B582B06B
:100A2000174B5A6901210A435A615B690B400193D4
:100A3000019B144BC224A4001859134A1040802271
:100A4000D20102431A51802292001A600F4B18689B
:100A50000F4A10400F4A02431A600F4A0F4898602D
:100A6000DA605A68120C1204082002435A601A68AD
:100A7000063802431A601A680A431A6002B010BDB1
:100A80000010024000E100E0FF00FFFF080002400C
:100A90000F80FFFFA025000020000020402401401F
:100AA00010B5054B1B689B0700D410BD024B0222FA
:100AB0005A60FFF79FFCF8E70000024072B6FEE7BD
:100AC00072B6FEE77047704710B500F00BF810BD26
:100AD000034B1A68024B1B689B1A8342FAD3704778
:100AE00058000020024A1368013313607047C04663
:100AF000580000207047000010B51F4B5A680C23A7
:100B00001340042B16D0082B18D0002B03D01B4BFE
:100B10001B4A1A6002E0194B194A1A60164B5A68B0
:100B200012090F231340174AD15C144A1368CB40B3
:100B3000136010BD114B144A1A60EFE70E4B5C684E
:100B40005A68A40C0F210C400234DB6A19400131B1
:100B5000D20306D50C48FFF7B3FA6043074B186081
:100B6000DCE76201121B93019B1ADB001B191B02BD
:100B7000024A1360D2E7C046001002400000002085
:100B800000127A00540C00080024F4000D48854639
:100B9000FFF7B0FF0C480D490D4A002302E0D4587E
:100BA000C4500433C4188C42F9D30A4A0A4C0023B7
:100BB00001E013600432A242FBD300F011F8FFF70A
:100BC000BFFDFEE700100020000000200400002010
:100BD0006C0C0008040000205C000020FEE7000010
:100BE00070B500260C4C0D4D641BA410A64209D113
:100BF000002600F021F80A4C0A4D641BA410A642FE
:100C000005D170BDB300EB5898470136EEE7B3004D
:100C1000EB5898470136F2E7640C0008640C0008B2
:100C2000680C0008640C000803008218934200D18D
:100C3000704719700133F9E7F8B5C046F8BC08BC35
:100C40009E467047F8B5C046F8BC08BC9E46704743
:100C500080004000000000000000000001020304CA
:040C60000607080972
:040C6400D5030008AC
:040C6800AD030008D0
:040C6C0000127A00F8
:0400000508000B8D57
:00000001FF
